:400000000040002011000000FD070000FD07000010B500F013FCC04610B51222174B1A6001F030FD164802F0E7F8302001F042FC01F0C6FB134C8023DB052360802212060B
:40004000114B1A6080221203104B1A601049072001F08CFB072001F07DFB0E4A0E4B1A600E4B23600E4A0F4B1A600E4B1A680C4B1A42FAD10C4A0B4B1A6010BD3000104097
:40008000001BB7000C020B4008010B4000010B40211F00007F3E000008020B400700014F0800080010020B400100010010B572B600240FE01E486200131959000B004118AC
:4000C00089881A5AC31858880004104300F090FB0134E4B2012CEDD9EE221202154B1A6099231B04144A1360144A1360144A117806230B43DBB213704022124B1A60124AB2
:40010000124B1A60D8221201114B1A602022114B1A60C0229202104B1A6002220F4B1A602E320F4B1A60FFF777FF00F051FB10BD883200000003024000500F4030500F4094
:4001400000700F4000000440060C180008000440080304400006044008060440000704400807044010B5064C2378002B07D1054B002B02D0044800E000BF0123237010BD0C
:400180005801002000000000C42E0000084B10B5002B03D00749084800E000BF07480368002B00D110BD064B002BFBD09847F9E7000000005C010020C42E0000C0000020A7
:4001C0000000000030B5A1B0002001F07FFF002001F090FF10AC40220021200002F03DFA2025257040220021684602F036FA6B461D7000F0B1F800F0B7F800F0A3F8484B51
:40020000220003CB03C21B781370200001F048FA39224449200002F017FA200001F040FA00F018F90100684602F042FA684601F037FA3D4923000A0023CA23C303CA03C383
:4002400012781A70200001F02BFA00F089FA374B1A6810929A88A2809B79A371200001F01FFA00F05BF901F00DFC62B600F038F900F054F92E4923000A0023CA23C323CA6D
:4002800023C31188198092789A70200001F008FA01F028FF030058425841C0B201F016FF002418E000F0D6F801F0FAF9214801F0F7F9002001F086FE01F07EFB01F012FF30
:4002C000030058425841C0B201F000FF032C01D100F024F90134C82CE4D910AD22001649280002F0C3F9280001F0DAF9684601F0D7F9124801F0D4F900F0ACF801F0D0F99D
:400300000F4B2A0013CB13C219001B6813608B889380280001F0C4F9002021B030BDC046D02E0000DC2E0000182F0000442F0000302F00004C2F0000502F00007C2F0000D1
:40034000802F000010B50249024801F00BF910BD2020270A3819110010B501F091F910BD10B500F0C7FE10BD10B580200002010000F0AEFA10BDC04670B582B000F010FD64
:40038000124B1860030D032213409A00D3185900020C0F252A408A18040B07263440A3001C196100030A2B40CB18010931408C0061184C0028402018054C009005492000B5
:4003C00002F054F9200002B070BDC0465C02002074010020942F000070B582B000F0F8FC194B1860020B03263240FA239B0053431C00020A0F252A4064210B005343E218F0
:4004000003092B409900CB18590052182B000340D218030F01241C40A3001C196100030E2B40CB18010D31408C0061184C00000C28402018054C103400900549200002F082
:4004400015F9200002B070BD6802002074010020942F000070B500F0BBFC084B1860FFF7BBFF0500FFF788FF0300054C20342A000449200002F0FAF8200070BD68020020CA
:4004800074010020A82F000010B58020C00501F0A7FC012001F0DEFB0121002001F090FB0749002001F002FC012001F0B5FB0549002001F0E7FC002001F004FD10BDC04621
:4004C000FEFF0000C904000010B5FFF749FF01F01DFE43425841C0B201F00CFE10BDC04610B50021002001F06BFB0121002001F02BFB012001F090FB002001F0FDFC05491A
:40050000002001F0BFFC044A0121002001F0C0FD10BDC04689040000FEFF000010B590B0322001F035F9322001F032F901F0CAFA02007849684602F099F8684601F0B0F880
:40054000322001F025F901F0A7FB02007249684602F08CF8684601F0A3F8322001F018F901F0CEFB0400322001F012F922006B49684602F07BF8684601F092F8322001F0B7
:4005800007F9322001F004F9002001F00FFB02006349684602F06AF8684601F081F8002001F0C0FA02005F49684602F05FF8684601F076F8002001F01DFB02005A49684623
:4005C00002F054F8684601F06BF8002001F0A0FB02005649684602F049F8684601F060F8002001F0A5FB02005149684602F03EF8684601F055F8002001F054FC04003220D0
:4006000001F0C6F822004B49684602F02FF8684601F046F8012001F0C9FA02004649684602F024F8684601F03BF8012001F07AFA02004249684602F019F8684601F030F832
:40064000012001F0D7FA02003D49684602F00EF8684601F025F8012001F05AFB02003949684602F003F8684601F01AF8012001F05FFB02003449684601F0F8FF684601F056
:400680000FF8012001F00EFC02003049684601F0EDFF684601F004F8322001F079F8002001F090FC012001F08DFC322001F070F8022001F07BFA02002549684601F0D6FF73
:4006C000684600F0EDFF022001F02CFA02002149684601F0CBFF684600F0E2FF022001F027FB02001C49684601F0C0FF684600F0D7FF022001F0D6FB02001849684601F08F
:40070000B5FF684600F0CCFF322001F041F810B010BDC046B02F0000CC2F0000EC2F0000103000002C300000503000007430000090300000AC300000D8300000F430000010
:40074000183100003C3100005831000074310000A0310000BC310000E0310000FC31000070B584B0154D280001F0EEF8EA786B68190AFF242340124E214000911149300025
:4007800001F074FF300000F08BFF69680A0E2B68180A1E0C090C23400B4D21400291310021400191044000940849280001F05EFF280000F075FF04B070BDC04660020020E7
:4007C00020020020283200006C0200204C3200000323044A1360044A13600022034B1A607047C0463000304030003140000E3F4010B50A00002101F030FF10BD10B501F0A1
:40080000F7FE03680C2B00D1FEE7FEE710B50300084A1068C318084A9A1A802A02DC054A136005E001F0E4FE0C2303600120404210BDC046C40000200003002070B50F4E80
:400840000F4D13E029686B68AC68002202E001C901C30432A242FAD1E868002202E0002102C304328242FAD11035013E002EE9D101F0C4FEFFF7A6FCFEE7C0460100000098
:400880005033000010B50E4A136801218B43136000230AE0032B03D89A000A49505800E009489900094A885001332F2BF2D9FFF7FDFB034A116801230B43136010BDC04655
:4008C0000000104000000000FD07000000000020014B186059607047C0010020F0B557464E464546E0B480460E00030B03221A40FA2080000100514343461B0A0F200340CA
:40090000642463435A1843461B0903409900CB185B009B184246024099469144002400255F4F1FE0BB0705D16421380001F024FD002908D1C8214900380001F01DFD002922
:4009400003D1012302E0012300E00023002B04D0544A0023A4185D4103E0534A0023A4185D4101374F45DDD343461B0F012213409A00D3185B004246120E0F271740DF19AD
:400980007B1E5B00494A9B5A9A464B469B0705D16421484601F0F0FC002908D1C8214900484601F0E9FC002903D1012302E0012300E00023002B04D0022F02D901239C460F
:4009C000E2443B4A00235046002101F0FBFC24184D4143461B0D03273B409800C3185B004246100C0F22904610401818304A0023002101F0E7FC2F4A01235B428018594173
:400A000024184D41300D0740B800C7197F00300C43461840381880231B04334000D00123002B13D08023DB0332001A409A4201D1012300E00023002B03D00B2801D80C3085
:400A400004E0002B02D10C2800D10020E12212010023002101F0B6FC24184D41330B0722904613409800C3185B00300A0F27384018183C220023002101F0A4FC001969413C
:400A80003309424613409A00D3185B003E409C190025001969411CBC90469946A246F0BDB20700000085E2018033E101943200008051010080AEFEFF70B50C00431E0F4A9E
:400AC000D3181D7E022816D18B0705D16421200001F052FC002908D1C8214900200001F04BFC002903D1012302E0012300E00023002B00D00135280070BDC046943200000B
:400B0000F0B55F4656464D464446F0B485B0824614001D009D4B9E4A90461EE0A41BBD4101239C46E04443469B0705D16421404601F022FC002908D1C8214900404601F08F
:400B40001BFC002903D1012302E0012300E00023002B01D08F4B00E08C4B1E000027AF42DCD1A342DAD941460120FFF7A5FF8A4B58430137C146B8460AE0A41BBD41012372
:400B80009C46E04449464046FFF796FF824B584306000027AF42F0D1A042EED94746C8467D4A00232000290001F0ECFB7A4941430A000023AB4203D1A14201D900220023C2
:400BC000A41A9D41431C9946E122120100232000290001F0D7FB0090E121090141430E9B002B14D0002D03D10AD16C4B9C4207D9009B0C2B0ED90C38009001239B460EE02D
:400C0000009B002B09D19B460C33009307E000239B4604E001239B4601E000239B460A000023AB4203D1A14201D900220023A41A9D413C2200232000290001F0A3FB0600BD
:400C40000101891B8A000023AB4203D1A24201D900220023A41A9D41029403950A21380001F004FB05070A21380001F085FB0C0625430A21484601F0F9FA04052C430A21A6
:400C8000484601F079FB0D042C43FA218900404601F0ECFA05032543FA218900404601F06BFB0C006421200001F0E0FA000205436421200001F060FB0C000A21200001F0D0
:400CC000D5FA000105430A21200001F055FB0D4353465D600E9BDB055A4695052B431C000A21009801F0C2FA050525430A21009801F042FB0C0425430A21300001F0B6FA16
:400D000004032C430A21300001F036FB09020C430A21029D039E280001F0A8FA000104430A21280001F028FB0C4353461C60022F04D80C3701235B429C46E04401371A20A4
:400D400078430A2101F092FA4844404443469C0804196421404601F089FA4300181840002418C8214900404601F080FA2018072101F002FB002900D107315346996005B05E
:400D80003CBC90469946A246AB46F0BD8033E101B20700000085E20180510100C1A8000010B582B0074B1A685B68074CE068002112184B41054C00912000FFF7A1FE2068F0
:400DC00002B010BDF0020020C0010020D402002010B582B0074B1A685B68074CE068002112184B41054C00912000FFF789FE606802B010BDF0020020C0010020D4020020DC
:400E0000F0B5474680B486B016000023009302000B0002A8FFF774FEF30701D4012300E00023002B23D002990B09072213409A00D3185A000F270F40BF183A2F02D87B1CD7
:400E4000984601E0002398467F2399430D000A21404601F00BFA04012C430A21404601F08BFA0C430294474503D9012302E0012300E00023002B28D0B20726D4029C230BC9
:400E8000072213409A00D3185A00230A0F271F40D7193A2F02D87B1C984601E000239846914B1C4025000A21404601F0DFF904032C430A21404601F05FFA09020C43029453
:400EC000B84501D2012300E00023002B25D0720723D4029D2B0D032213409A00D3185A002B0C0F241C401419162C01D8671C00E000277E4B1D400A21380001F0B7F9010575
:400F00000D430A21380001F037FA090429430291A74201D2012300E00023002B75D0F20673D4039C230D032213409A00D3185A00230C0F251D405519330723D5230F012263
:400F400013409A00D3185A00200E0F2318401018220B03211140FA2292005143220A1A4064277A43891822091A409700BA185700C9192340C918FFF79FFDEF1DB84230D207
:400F80003F1A2EE0230B03221A40FA239B0053431900220A0F20024064273B005343CA18230903409900CB1859005218010021405118230F012213409A00D3185A00230EAA
:400FC00018401018F743FFF777FD3B0704D5EF1DB84206D23F1A04E0854201D26F1C00E0012742490C400A21380001F03FF901050C430A21380001F0BFF9090421430391A1
:40100000AF4201D2012300E00023002B25D0B20623D4039D2B0F012213409A00D3185A002B0E0F241C4014190B2C01D8671C00E001272F4B1D400A21380001F017F90107F4
:401040000D430A21380001F097F9090629430391A74201D2012300E00023002B3CD073063AD40398030B03241C40FA26B60021007143040A0F231C40642254430C190209CC
:401080001A4091008A18510064180340E4180134800B85033100200001F0E8F8000305433100200001F068F90C006421200001F0DDF8000205436421200001F05DF90C0086
:4010C0000A21200001F0D2F8000105430A21200001F052F90D43039502990398FFF7FEFB06B004BC9046F0BDFF80FFFFFFFFC0FFFFFFFFE070B51C4A136911688C46634404
:401100001361526893422ED3184E346875680120002100196941306071609B1A124C2361E06800213268736812184B41E569A469A24218D1AB4216D10D4A0423D46823431F
:40114000D3600C4B1A680C4B1A6034687568D2B200196941FFF754FE034B9861D9619B68002B00D0984770BDC0010020F0020020D4020020C8000020E4020020F0B55F46DE
:4011800056464D464446F0B487B080460D00CE4B1A685B680021009102A8FFF7B1FC029C22090720024093009A1853000F210A002240D21843461E68330903409800C3181A
:4011C00058000B0033401F18BA4202D90123994601E000239946EB0701D4012300E00023002B05D04B46002B01D0002700E017000A21380001F03AF803019A460A213800BF
:4012000001F0BAF853461943230B072213409A00D3185800220A0F2313401818AB0708D44B46002B10D03A2801D8471C0DE000270BE0330B072213409A00D3185A00330A11
:401240000F271F40BF1800E00700874202D20123994601E0002399469C4B19408A460A21380001F003F8010353460B439A460A21380001F081F8090253461943230D03224C
:401280001A4093009A185000240C0F231C4003196A0708D44A46002A22D0162B01D85C1C1FE000241DE0320D03200240900082185000320C0F241440041980221204324090
:4012C00000D00122002A0CD08022D2031640964201D1012200E00022002A02D00C3400E01C009C4202D201239B4601E000239B46774E0E400A21200000F0B8FF0005064332
:401300000A21200001F038F809040E43B146039C220D03210A4093009A185000230C0F26334082469A4443465F683B0D0B409A00D3185A003B0C1E409619EB065AD42B0737
:401340002BD5230F012213409A00D3185A00200E0F2318401018220B1140FA2292005143220A1A4064267243891822091A409600B218560089192340C918FFF79DFB049E8F
:4013800043469B689E4201D89E1B01E09E1B07365644B0422ED2361A2CE05B46002B28D0230B03221A40FA239B0053431900220A0F200240642633005343CA182309034057
:4013C0009900CB1859005218010021405118230F012213409A00D3185A00230E18401018FFF76AFB824502D253465E1C02E0012600E05646564502D20123984601E00023A8
:4014000098460A21300000F031FF03059A460A21300000F0B1FF090453461943230F012213409A00D3185800220E0F231340C3182022154008D14246002A10D00B2B01D848
:401440005E1C0DE001260BE03A0F012002409000821850003A0E0F261640861900E01E009E4202D20123984601E000239846194B19408A460A21300000F0F8FE0107534656
:401480000B439A460A21300000F076FF090653461943230B03221A40FA239B005A43230A0F26334064204343D218230933409800C3185800121834401419002D0CD14346A7
:4014C000002B1FD001341DE0F0020020FF80FFFFFFFFC0FFFFFFFFE03B0B03221A40FA239B0053431D003A0A0F242240642003005343EA183B0923409800C31858001218B3
:401500002740D4190E00FA218900200000F0AEFE00030643FA218900200000F02DFF0D006421280000F0A2FE0002340004436421280000F021FF0D000A21280000F096FE55
:40154000000104430A21280000F016FF200008434946FFF7C3F907B03CBC90469946A246AB46F0BDF0B583B001900E000B0D032423409A00D31858000F0C0F231F40C719B3
:401580000A0F01210A4091008A185100300E18400D18320B1440FA22920062431000340A1C4064210A006243841832091A4091008A18510064183340E41801993000FFF745
:4015C0008DF91A4B18605960194B5E60019A1A60022D01D80C35013C681C1A2358430A2100F044FEC7193F19A308FF186421200000F03CFE430018184300FF18C821490091
:40160000200000F033FE3818072100F0B5FE002900D10731064B9960064B19780648FFF7ADFD064B9861D96103B0F0BDF0020020D4020020C8000020C4020020C001002067
:4016400010B50122074B1A7000230749CB600749CB6007490B70074B1A6007490748FFF781FF10BDC0020020C0010020D4020020E8020020E4020020202027104118050076
:4016800010B5054B1B78002B01D1FFF7D9FF0349022000F0F7FB10BDC0020020F510000070B505000078012404E000F039FD285D0134E4B20028F8D170BDC04600230AE061
:4016C0000D4A12683F210A400C49C95C8A4201D1033303E001332D2BF2D9032308490868084A02400A60084A944663441B78DBB2064A13607047C0462CFF0B40B83200002F
:4017000000002240FFFFFFBFCDF1FF0F28FF0B40034B18688023DB05184000D0012070470000224010B5040000F06FFDE304E022920313401900054C2368054A1A400B00FB
:401740001343236000F065FD10BDC04600010B40FFFFC7FF1F2318401E3B8340014A13607047C04600E100E001BE704770B504000D001F2802D90020FFF7F6FF1034A400A8
:4017800080239B059C4664442068256070BDC04610B5040006E0084B586800F02DFD074B9C46644480231B029C42F4D8024B9868604300F021FD10BDD80000200080FFFFB9
:4017C00070B582B000F07EF900285DD000F01DFD050000230AE02D4A12683F210A402C49C95C8A4201D1033303E001332D2BF2D903230021274A1160274A1268D20606D1B4
:40180000254802681F318A4313390A430260234C2168234A1140234A5A438023DB019C466244D20B013A5205520D0B001343A0225203134323601C4B1B680193302000F015
:40184000EBFC1A4A13688021C9050B4313602668174B1E40002407E00120FFF799FF1034A30533430D4A1360EE2CF5D90120FFF78FFFFF239B051E43084B1E60019A0A4BCD
:401880001A60280000F0C5FC02B070BD2CFF0B40B832000028FF0B4034FF0B400800224000F800C040420F003000104000002240FFFF3FC030B587B0040000F0A6FC05005D
:4018C000FFF726FF002803D0FFF7F8FE012100E00021104B1B6800930F4B1B680193033C0E4B1B5D02930E4B1B68039304AA0D4B04936B4605930C4B1A600C480C4A1060F9
:401900001B68012901D1FFF75BFF280000F081FC07B030BD08010B4000010B40B832000030001040B6EA000008001040170000800400104010B5034B1B7B584300F05CFC26
:4019400010BDC046D8000020134B1B78DAB20260124B1B781B0213430360114A12781204134303600F4A12781206134303600E4B1B78DAB242600D4B1B781B021343436074
:401980000B4A12781204134343600A4A12781206134343607047C04678F1FF0F79F1FF0F7AF1FF0F7BF1FF0F7CF1FF0F7DF1FF0F7EF1FF0F7FF1FF0F30B583B000F025FC90
:4019C00004001E4A13685B005B0813601C4B1B685B000CD51B4801681B4B19401B4B1A68131D9B05FF22920513400B430360184B1B889BB2174A1360174A116804230B4334
:401A00001360164D2B6801930220FFF78BFE30BF019B2B600A4B1B685B000AD52320FFF789FF084A1168084B0B40FF2189050B431360200000F0EDFB03B030BD00000B4064
:401A40000000224008002240FFFF3FC028FF0B4052F1FF0F0C000B4010ED00E000010B40024B1868800F80077047C0460C020B40034B1868C0231B02184000D00120704793
:401A800000010B4010B50D4B1A6801218A431A601A68022082431A60094A10683024A043203C204310601068093CA043014311601A68802109060A431A6010BD0000224041
:401AC000000F2240034B1B68002B01DA012000E0002070470000224010B500F096FB044A1368C02109020B43136000F092FB10BD00010B4010B500F088FB08490A68084BC4
:401B00001A408024E40122430A600A6813408022120213430B6000F07CFB10BD00010B40FF3FFFFF10B50400022802D90020FFF71BFE044B1868E4000134E040012318407A
:401B400010BDC04610020B4070B504000D00022802D90020FFF708FE2000FFF7E3FF00280AD1064A1368E40003210800A04083430D40A5401D43156070BDC0460C020B40CF
:401B800010B5084BDB68002B0BD0074A136801218B431360034C21690020FFF7D5FF0023E36010BDE001002010020B400300034A1068DB00D8400323184070470C020B40F8
:401BC00070B504000D00012802D90020FFF7CCFD2000FFF7A7FF002809D105490B68E40002340122A2409343A5401D430D6070BD0C020B4010B50400012802D90020FFF73D
:401C0000B3FD044B1868E4000234E0400123184010BDC0460C020B4010B504000C4A136803431360C30704D50020FFF77BFF0028FAD0E30504D50120FFF774FF0028FAD08E
:401C4000E30304D50220FFF76DFF0028FAD010BD10020B4010B50400FFF70AFF002818D10C4A1368A3431360E30704D50020FFF759FF0028FAD1E30504D50120FFF752FFB5
:401C80000028FAD1E30304D50220FFF74BFF0028FAD110BD10020B40024B1868024B18407047C0460C020B400808000070B505000C00012802D90020FFF756FD0D4B1B68DD
:401CC0009B0F01D1C92000E05D20FFF733FE0A490B682D01094AAA409343AC401C430C60044B1B689B0F01D1432000E01F20FFF721FE70BD0C020B4008020B40FFFF00007F
:401D0000024B1868000E1F23184070470C020B4010B50400012802D90020FFF725FD034B18682401E0400004000C10BD08020B4010B5012809D0002802D0022809D00BE025
:401D4000084B18680004000C0AE0064B1868000C06E0054B186803E00020FFF705FD002010BDC04600020B4004020B4010B50020FFF7D8FE002803D00022184B5A6121E08A
:401D80000120FFF7CFFE002803D00122134B5A6118E00220FFF7C6FE002803D002220F4B5A610FE00D4C0123E360002363610020FFF7FCFE206100210020FFF7C5FE0120BE
:401DC000FFF72AFF054B5869FFF7B2FF0400034B5869FFF7ADFF8442F9D010BDE001002070B50400FFF73CFEA04211D000F00DFA0500FFF7BBFF074A13689B009B08A40F75
:401E0000A4071C431460FFF7BBFE280000F001FA70BDC0460C020B4070B5050000F0F5F90400FFF725FE002803D0FFF763FE012100E0002108482840084A1568084B2B40F7
:401E4000184310601368012901D1FFF745FE200000F0DFF970BDC0460404040010020B40FBFBFBFF054A1168054B184008431060024B1A68024B1A42FAD1704710020B40F1
:401E80000808080010B5022805D88000044B1B189869996103E00020FFF766FC002010BDE001002010B5022804D88000044B1818806903E00020FFF757FC002010BDC04606
:401EC000E001002010B502280BD88000074BC158074B5A6A8A435A62064A53680B43536002E00020FFF740FC10BDC046E8320000E0010020EC00002010B5022807D88000FD
:401F0000054BC158054A53688B43536002E00020FFF72AFC10BDC046E8320000EC00002010B5244B1B685B0715D5234B5B685B070ED5224B596A042001401F4C62688A4386
:401F400062605A6A82435A629B69002B00D098470420FFF761FF174B1B685B0518D5164B5B685B0510D5154B596A8022D2001140114842688A434260596A114A0A405A62E9
:401F8000DB69002B00D098478020C000FFF744FF084B1B685B030CD5074B5B685B0304D5064B1B6A002B00D098478020C002FFF733FF10BD10020B40EC000020E001002098
:401FC000FFFBFFFF10B5041E13D1FFF7EFFD032803D10130FFF720FF23E02000FFF7E6FD02281ED10630FFF73DFF0420FFF714FF17E0012815D1FFF7D9FD032804D18020DB
:40200000C000FFF709FF0CE02000FFF7CFFD022807D180200001FFF725FF8020C000FFF7FBFE10BD70B504000E001500012823D8FFF7E0FD00281FD1114B9D421CD8002E83
:402040000AD12000FFF774FE8542FAD32000FFF76FFE8542FAD812E0A2000A4BD65829002000FFF723FE084A536A33435362074A53683343536002E00020FFF775FB70BDD2
:40208000FFFF0000E8320000E0010020EC00002070B504000E001500012811D8FFF7AAFD00280DD1084B9D420AD82000FFF740FE2A181204120C31002000FFF7B3FF02E041
:4020C0000020FFF751FB70BDFFFF0000044A1368DBB201218B430840184310607047C04600000440024B1B68012018407047C0460400044004490A68D2B208239A43C000A0
:40210000184010430860704700000440024B1868C0080123184070470400044000000000FEB5494652465B460EB407462E4909688A462E4A12682E48022100F097F8030032
:402140002A480068C0182A4900F090F806001F3EB346234A126801219140C9430C000125002600F052F8814651460B6823400B605846043000F040F83800F04028409040B5
:402180000B68234003430B60584600F035F80136072EF1D900200130012090400B68234003430B605846063000F026F8484600F030F8C046C046C0460EBC894692469B46F2
:4021C000FEBDC046C046C046C046C046C046C046C046C046C046C046C046C046C046C046D4000020D0000020CC000020E800002000C20100000000000230800803D0013869
:40220000FDD1C046C046C0467047EFF3108072B6704780F31088704770B50400FFF7F5FF0500102C05D8104A136803218B43136016E0202C07D80C490B6803229343023A69
:4022400013430B600CE0302C07D807490B6803229343013A13430B6002E00020FFF784FA2800FFF7D6FF70BD30001040002243088B4274D303098B425FD3030A8B4244D329
:40228000030B8B4228D3030C8B420DD3FF22090212BA030C8B4202D31212090265D0030B8B4219D300E0090AC30B8B4201D3CB03C01A5241830B8B4201D38B03C01A5241F1
:4022C000430B8B4201D34B03C01A5241030B8B4201D30B03C01A5241C30A8B4201D3CB02C01A5241830A8B4201D38B02C01A5241430A8B4201D34B02C01A5241030A8B42B8
:4023000001D30B02C01A5241CDD2C3098B4201D3CB01C01A524183098B4201D38B01C01A524143098B4201D34B01C01A524103098B4201D30B01C01A5241C3088B4201D3AC
:40234000CB00C01A524183088B4201D38B00C01A524143088B4201D34B00C01A5241411A00D20146524110467047FFE701B5002000F006F802BDC0460029F7D076E77047D6
:402380007047C046002B11D1002A0FD1002900D1002802D00021C943081C07B4024802A14018029003BDC046D9FFFFFF03B4684601B5029800F032F8019B9E4602B00CBC0D
:4023C0007047C046F0B54F464646C0B41604360C9946330005042C0C070C150C63437E436F4365431C0CAD1964199C46A64203D980235B02984647446346250CEF191D04C5
:402400004B464A4343432D0C240464199918C91920000CBC90469946F0BDC046F0B54D46564644465F46F0B4924683B004000D0099468B422FD82CD04946504600F0AEF80A
:4024400029000600200000F0A9F8331A9846203B9B4600D574E053465A4693401F005346424693401E00AF4229D826D05B46A41BBD41002B00DA79E00022002300920193A0
:4024800001235A4693400193012342469340009319E08242D0D900220023009201930C9B002B01D01C605D600098019903B03CBC90469946A246AB46F0BDA342D6D9002264
:4024C0000023009201934346002BE8D0FB0772081A4346467B080EE0AB4201D1A2420CD8A41A9D41012024196D410021013E24184D41002E06D0AB42EED9013E24196D4116
:40250000002EF8D15B460098019900196941002B22DB2B005A46D3402A004446E2401C005B461500002B2CDB26009E40330026004746BE403200801A994100900191AEE7E9
:40254000424620239B1A5246DA40414613004A468A4017001F4382E7424620239B1A2A0046469A402300F3401343D5E74246202300219B1A0022009101920122DA40019224
:4025800082E74246202326009B1ADE402F00B446974066463B003343C9E7C04610B5002903D100F007F8203002E0081C00F002F810BDC0461C2101231B04984201D3000CDD
:4025C00010391B0A984201D3000A08391B09984201D30009043902A2105C40187047C04604030202010101010000000000000000014B18687047C046540100200E4B70B5AC
:4026000000251E000D4CE41AA410A54204D0AB00F35898470135F8E700F088FE084B00251E00084CE41AA410A54204D0AB00F35898470135F8E770BD3833000038330000ED
:402640003833000040330000002310B59A4203D0CC5CC4540133F9E710BD03008218934202D019700133FAE7704700000EB410B59DB002A9029008610B4882248860486127
:40268000012040421FABC881084804CBA400006801938C8100F076F80023029A13701DB010BC08BC03B01847FFFFFF7F54010020031C0A7801311A700133002AF9D170475C
:4026C000F0B58E6885B007000C00039201939E4243D890238A89DB001A423ED003250969236801985B1A029363695D43EB0F5D19029B6D1001331B18AB4200D91D00530568
:4027000010D52900380000F037FB061E14D0029A2169FFF799FFA289194B134080221343A38112E02A00380000F086FB061E0CD12169380000F0D4FA0C23402201203B60E4
:40274000A38940421343A38117E0029B2661F61826606561019EED1AA560019BB34200D21E0032000399206800F0A5FA0020A3689B1BA36023689E19266005B0F0BDC04697
:402780007FFBFFFFF0B59FB0029005938B890F0016001B0610D50B69002B0DD1402100F0EBFA38603861002804D10C23029A01381360D8E040237B61002306AD6B61203300
:4027C0006B761033AB7634002378002B03D1A31B049312D003E0252BF9D00134F4E7A31B320039000298FFF76BFF431C00D1B4E06A69049B944663446B612378002B00D146
:40280000ABE00122002352426A6002A95432521801342B60EB60AB601370AB65534E21780522300000F03CFA002807D00123801B83402A68013413432B60EFE72B68DA06FC
:4028400004D55322202102A8121811701A0704D553222B2102A81218117022782A2A03D0099B00200A210EE0059A111D12680591002A01DB099204E05242EA60022213430C
:402880002B6001340BE02278303A092A04D84B4301349B180120F6E7002800D0099323782E2B1ED163782A2B0AD1059B02341A1D1B680592002B01DA01235B42079310E0EC
:4028C00000230A201A0001346B6021783039092904D84243013452180123F6E7002B00D00792234E21780322300000F0D9F9002806D04023801B83402A68013413432B6020
:40290000217806221B48661C297600F0C9F9002812D0194B002B06D10722059B073393430833059314E005AB00933A00134B2900029800E000BF07E005AB00933A000F4B95
:402940002900029800F08AF80390039B013304D06B69039A9B186B6135E7BB890B985B0601D5012040421FB0F0BDC046F6320000FC3200000033000000000000C12600002A
:40298000F7B5170001938A680B6900900C00934200DA130022003B6043321278002A01D001333B6023689B0602D53B6802333B60062523681D401ED0230043331B785A1E5B
:4029C0009341226892061CD53020E1184331087021005A1C45310978A2184332023311700FE022000123193201990098089EB047431C0ED00135E3683A689B1A9D42F0DB3A
:402A0000DAE72200019943320098089DA847431C02D10120404220E006232068E1683A6803400025042B03D18D1AEB43DB171D40A3682269934201DD9B1AED180027BD424F
:402A40000AD0220001231A3201990098089EB047431CDED00137F2E70020FEBDF0B58BB006920A0043320793059004920A7E0C00109B6E2A00D1ABE011D8632A22D009D8EA
:402A8000002A00D1B5E0582A00D0C5E045310A70814A4FE0642A1DD0692A1BD0BCE0732A00D1AAE009D86F2A29D0702A00D0B3E0202209680A43226037E0752A1FD0782ADF
:402AC00033D0A9E00E001A684236111D196013683370A4E021681A68080606D4490604D5111D19600023D55E02E0111D19601568002D3BDA2D23049A6D42137036E02168DA
:402B00001A68080606D4490604D51568111D1960ADB202E0111D196015685F4B227E039308276F2A1DD00A271BE022007821453211705A4A19680392081D226818600D68B0
:402B4000100602D4500600D5ADB2D30702D520231A4322601027002D03D1202322689A4322602300002243331A7002E00A274A4B03936368A360002B09DB042221689143C5
:402B80002160002D05D1049E002B11D07BE0002D79D0049E28003900FFF7EEFB039B013E5B5C280033703900FFF760FB051EF1D1082F09D12368DB0706D5636822699342DE
:402BC00002DC3023013E3370049B9B1B23612BE009681A68080607D4490605D5111D19601368A28A1A8004E0111D1960136862691A600023049E236116E01A68111D19603E
:402C0000166800216268300000F04AF8002801D0801B6060636803E0260042363270012323610023049A1370079B09AA00932100069B0598FFF7A4FE431C02D101204042E7
:402C400027E02369320006990598079DA847431CF4D0236800259B070FD4099BE068984217DA180015E022000123193206990598079EB047431CE1D00135E368099A9B1A52
:402C80009D42F0DBE9E72600039B42361B7833708EE70BB0F0BDC0460733000018330000C9B28218904204D003788B4202D00130F8E70020704710B5884202D98B1898421D
:402CC00001D3002305E09B1A013A08D3995C8154FAE7934203D0CC5CC4540133F9E710BD70B50500002944D00C1F2368002B00DAE418280000F0D8F81E4A13681100002B94
:402D000002D16360146031E0A3420DD92268A018834203D118685B688218226063600C6024E0A24203D813005A68002AF9D11E689819A0420BD12168711858181960824204
:402D400014D110685268411819605A600EE0A04202D90C232B6009E021686018824203D1106852684118216062605C60280000F09CF870BD0C020020032370B5CD1C9D4324
:402D8000083506000C2D01D20C2501E0002D01DBA94202D90C23336048E0300000F084F8234B1C681A002100002913D00B685B1B0DD40B2B02D90B60CC181EE08C4202D15B
:402DC000636813601AE04B6863600C0016E00C004968E9E7174C2368002B03D1300000F051F820602900300000F04CF8431C18D00323C41C9C43A0420DD12560300000F0A2
:402E000054F8200007220B30231D9043C31A0ED05A42E2500BE0211A300000F033F8431CEBD10C233000336000F03FF8002070BD0C02002008020020F8B506000C00150008
:402E4000002904D11100FFF797FF040018E0002A03D1FFF745FF2C0012E000F027F885420ED929003000FFF787FF071E07D021002A00FFF7E9FB21003000FFF731FF3C00FF
:402E80002000F8BD002370B5064C050008002360FDF7BCFC431C03D12368002B00D02B6070BDC046F8020020704770470B1F1A68101F002A04DA891804390B68D018043810
:402EC000704700000000000054F5FF7F010000001B5B324A1B5B3B48000000000D0A0D0A0D0A5254435F50345F5744545F4578616D706C655F56312E30302E30342D466FF6
:402F0000726B31200D0A436F6D70696C652054696D653A20000000000D0A496E697469616C697A6174696F6E0D0A0D0A000000000D0A456E746572696E67204D61696E2055
:402F40004C6F6F700D0A0D0A0D0A00000D0000000D0A0D0A0D0A50726F6772616D2066696E69736865642072756E6E696E673A2020256C75202E0D0A000000005F00000079
:402F80005F436F6E736F6C2D4C4F470D0A0D0A0D0A0000002530326C752D2530326C752D2530326C750000002532735F253273000D0A0D0A57636F456E61626C65645661B2
:402FC0006C75653A2020256C75202E000D0A5764744765744361736361646556616C75653A2020256C75202E000000000D0A576474476574546F67676C6542697456616CDE
:4030000075653A2020256C75202E0D0A000000000D0A5764744765744D6F646556616C7565303A2020256C75202E00000D0A576474476574456E61626C65645374617475C9
:403040007356616C7565303A2020256C75202E000D0A576474476574436C6561724F6E4D6174636856616C7565303A2020256C75202E00000D0A5764744765744D61746305
:403080006856616C7565303A2020256C75202E000D0A576474476574436F756E7456616C7565303A2020256C75202E000D0A576474476574496E7465727275707443616C00
:4030C0006C6261636B56616C7565303A2020256C75202E0D0A0000000D0A5764744765744D6F646556616C7565313A2020256C75202E00000D0A576474476574456E6162FE
:403100006C656453746174757356616C7565313A2020256C75202E000D0A576474476574436C6561724F6E4D6174636856616C7565313A2020256C75202E00000D0A576415
:40314000744765744D6174636856616C7565313A2020256C75202E000D0A576474476574436F756E7456616C7565313A2020256C75202E000D0A576474476574496E746571
:40318000727275707443616C6C6261636B56616C7565313A2020256C75202E0D0A0000000D0A5764744765744D6F646556616C7565323A2020256C75202E00000D0A5764F8
:4031C00074476574456E61626C656453746174757356616C7565323A2020256C75202E000D0A576474476574436F756E7456616C7565323A2020256C75202E000D0A5764D1
:4032000074476574496E7465727275707443616C6C6261636B56616C7565323A2020256C75202E0D0A0000000D57616665723D2530336C752058506F733D2530336C7520F4
:4032400059506F733D2530336C7500000A0D52657649443D2530336C75204C6F74303D2530336C75204C6F74313D2530336C75204C6F74323D2530336C7520536F72743D2F
:403280002530336C7500000000300F40000400400F40000400001F003B005A0078009700B500D400F300110130014E011F1C1F1E1F1E1F1F1E1F1E1F030405060708090A1D
:4032C0000B0C0E0F101112131415161718191B1C1D1E1F2021222325262728292A2B2E2F30313233343500000400000000040000000004004300232D302B2000686C4C00D8
:403300006566674546470030313233343536373839414243444546003031323334353637383961626364656600000000F8B5C046F8BC08BC9E4670478D01000085080000A4
:40334000F8B5C046F8BC08BC9E4670476501000060330000C000002098000000A80100000000000000030020FF000000000704400700000001000000010000000000E02EE9
:40338000C05D00001800000000366E01F0000000040404000000000000000000000000000000000000000000000000000000000000000000F4320000000000000000000011
:4033C00000000000000000000000000000000000000000000000000000000000000000000000000000000000000000000000000000000000F40000200000000000000000B9
:40340000000000000000000000000000000000000000000000000000000000000000000000000000000000000000000000000000000000000000000000000000000000008C
:40344000000000000000000000000000000000000000000000000000000000000000000000000000000000000000000000000000000000000000000000000000000000004C
:40348000000000000000000000000000000000000000000000000000000000000000000000000000000000000000000000000000000000000000000000000000000000000C
:4034C00000000000000000000000000000000000000000000000000000000000000000000000000000000000000000000000000000000000000000000000000000000000CC
:020000040001F9
:0200000490303A
:020000004C0DA5
:0200000490402A
:4000000000000000000000000000000000000000000000000000000000000000000000000000000000000000000000000000000000000000000000000000000000000000C0
:400040000000000000000000000000000000000000000000000000000000000000000000000000000000000000000000000000000000000000000000000000000000000080
:0200000490501A
:0C0000000002112D11A10001113D5DAEA8
:0200000490600A
:0100000001FE
:00000001FF