:400000000040002011000000210800002108000010B500F025FCC04610B512220C4B1A6001F02AFD0B4802F0C7F8302001F03CFC01F0C0FB084B8022D2051A60802000062A
:400040000649086080200003054908601A6010BD30001040001BB7000C020B4008010B4000010B4010B572B600240FE01E486200131959000B00411889881A5AC3185888ED
:400080000004104300F0C6FB0134E4B2012CEDD9EE221202154B1A6099231B04144A1360144A1360144A117806230B43DBB213704022124B1A60124A124B1A60D822120118
:4000C000114B1A602022114B1A60C0229202104B1A6002220F4B1A602E320F4B1A60FFF79BFF00F087FB10BDA03200000003024000500F4030500F4000700F400000044044
:40010000060C180008000440080304400006044008060440000704400807044010B5064C2378002B07D1054B002B02D0044800E000BF0123237010BD5801002000000000D6
:40014000842E0000084B10B5002B03D00749084800E000BF07480368002B00D110BD064B002BFBD09847F9E7000000005C010020842E0000C00000200000000030B5A1B0AA
:40018000002001F055FF002001F066FF10AD40220021280002F041FA20242C7040220021684602F03AFA6B461C70012001F0DEFA012805D14F4801F07FFA00F0C1F9FEE7E2
:4001C00000F0B6F800F0BCF800F0A8F810AC4A4B220003CB03C21B781370200001F06CFA39224649200002F00FFA200001F064FA00F01CF90100684602F03AFA684601F0AD
:400200005BFA3F4923000A0023CA23C303CA03C312781A70200001F04FFA00F0B3FA394B1A6810929A88A2809B79A371200001F043FA00F085F901F01FFC62B600F05AF90C
:4002400000F060F900F07CF92F4923000A0023CA23C323CA23C31188198092789A70200001F02AFA01F0F0FE030058425841C0B201F0DEFE002418E000F0D8F801F01CFAD3
:40028000224801F019FA002001F04EFE01F08EFB01F0DAFE030058425841C0B201F0C8FE032C01D100F04CF90134C82CE4D910AD22001749280002F0B9F9280001F0FCF99C
:4002C000684601F0F9F9134801F0F6F900F0AEF801F0F2F9104B2A0013CB13C219001B6813608B889380280001F0E6F9002021B030BDC046902E0000D02E0000DC2E0000B1
:40030000182F0000442F0000302F00004C2F0000502F00007C2F0000802F000010B50249024801F031F910BD2020270A3712140010B501F0B7F910BD10B500F0EDFE10BDA0
:4003400010B580200002010000F0D4FA10BDC04670B582B000F036FD124B1860030D032213409A00D3185900020C0F252A408A18040B07263440A3001C196100030A2B4020
:40038000CB18010931408C0061184C0028402018054C00900549200002F048F9200002B070BDC0465C02002074010020942F000070B582B000F01EFD194B1860020B03261D
:4003C0003240FA239B0053431C00020A0F252A4064210B005343E21803092B409900CB18590052182B000340D218030F01241C40A3001C196100030E2B40CB18010D31409F
:400400008C0061184C00000C28402018054C103400900549200002F009F9200002B070BD6802002074010020942F000070B500F0E1FC084B1860FFF7BBFF0500FFF788FF68
:400440000300054C20342A000449200002F0EEF8200070BD6802002074010020A82F000010B5FFF769FF01F003FE43425841C0B201F0F2FD10BDC04610B58020C00501F0AF
:40048000A9FC012001F0E0FB0121002001F092FB0749002001F004FC012001F0B7FB0549002001F0F3FC002001F010FD10BDC046FEFF00006104000010B50D4801F0FCF825
:4004C00001F0D6FD43425841C0B201F0C5FD01F09DFC0400430701D5FFF7CEFF630503D5630301D5FFF728FF200001F099FC10BDB02F000010B5024801F0E4FD10BDC046E5
:40050000B904000010B50021002001F053FB0121002001F013FB012001F078FB002001F0EFFC0549002001F0B1FC044A0121002001F060FD10BDC04679040000FEFF0000C0
:4005400010B590B0322001F01DF9322001F01AF901F0B2FA02007849684602F067F8684601F0AAF8322001F00DF901F08FFB02007249684602F05AF8684601F09DF832202E
:4005800001F000F901F0B6FB0400322001F0FAF822006B49684602F049F8684601F08CF8322001F0EFF8322001F0ECF8002001F0F7FA02006349684602F038F8684601F02C
:4005C0007BF8002001F0A8FA02005F49684602F02DF8684601F070F8002001F005FB02005A49684602F022F8684601F065F8002001F088FB02005649684602F017F8684661
:4006000001F05AF8002001F08DFB02005149684602F00CF8684601F04FF8002001F046FC0400322001F0AEF822004B49684601F0FDFF684601F040F8012001F0B1FA020091
:400640004649684601F0F2FF684601F035F8012001F062FA02004249684601F0E7FF684601F02AF8012001F0BFFA02003D49684601F0DCFF684601F01FF8012001F042FB7C
:4006800002003949684601F0D1FF684601F014F8012001F047FB02003449684601F0C6FF684601F009F8012001F000FC02003049684601F0BBFF684600F0FEFF322001F005
:4006C00061F8002001F030FC012001F02DFC322001F058F8022001F063FA02002549684601F0A4FF684600F0E7FF022001F014FA02002149684601F099FF684600F0DCFFB3
:40070000022001F00FFB02001C49684601F08EFF684600F0D1FF022001F0C8FB02001849684601F083FF684600F0C6FF322001F029F810B010BDC046C82F0000E42F0000DD
:40074000043000002830000044300000683000008C300000A8300000C4300000F03000000C3100003031000054310000703100008C310000B8310000D4310000F8310000A1
:400780001432000070B584B0154D280001F0D6F8EA786B68190AFF242340124E214000911149300001F042FF300000F085FF69680A0E2B68180A1E0C090C23400B4D2140C8
:4007C0000291310021400191044000940849280001F02CFF280000F06FFF04B070BDC0466002002020020020403200006C020020643200000323044A1360044A1360002244
:40080000034B1A607047C0463000304030003140000E3F4010B50A00002101F0FEFE10BD10B501F0C5FE03680C2B00D1FEE7FEE710B50300084A1068C318084A9A1A802AE8
:4008400002DC054A136005E001F0B2FE0C2303600120404210BDC046C40000200003002070B50F4E0F4D13E029686B68AC68002202E001C901C30432A242FAD1E868002211
:4008800002E0002102C304328242FAD11035013E002EE9D101F092FEFFF770FCFEE7C046010000006833000010B50E4A136801218B43136000230AE0032B03D89A000A49D7
:4008C000505800E009489900094A885001332F2BF2D9FFF7C7FB034A116801230B43136010BDC04600001040000000002108000000000020014B186059607047C00100201E
:40090000F0B557464E464546E0B480460E00030B03221A40FA2080000100514343461B0A0F200340642463435A1843461B0903409900CB185B009B1842460240994691447A
:40094000002400255F4F1FE0BB0705D16421380001F0F2FC002908D1C8214900380001F0EBFC002903D1012302E0012300E00023002B04D0544A0023A4185D4103E0534A45
:400980000023A4185D4101374F45DDD343461B0F012213409A00D3185B004246120E0F271740DF197B1E5B00494A9B5A9A464B469B0705D16421484601F0BEFC002908D1E3
:4009C000C8214900484601F0B7FC002903D1012302E0012300E00023002B04D0022F02D901239C46E2443B4A00235046002101F0C9FC24184D4143461B0D03273B40980065
:400A0000C3185B004246100C0F22904610401818304A0023002101F0B5FC2F4A01235B428018594124184D41300D0740B800C7197F00300C43461840381880231B04334082
:400A400000D00123002B13D08023DB0332001A409A4201D1012300E00023002B03D00B2801D80C3004E0002B02D10C2800D10020E12212010023002101F084FC24184D41B0
:400A8000330B0722904613409800C3185B00300A0F27384018183C220023002101F072FC001969413309424613409A00D3185B003E409C190025001969411CBC904699465D
:400AC000A246F0BDB20700000085E2018033E101AC3200008051010080AEFEFF70B50C00431E0F4AD3181D7E022816D18B0705D16421200001F020FC002908D1C821490000
:400B0000200001F019FC002903D1012302E0012300E00023002B00D00135280070BDC046AC320000F0B55F4656464D464446F0B485B0824614001D009D4B9E4A90461EE082
:400B4000A41BBD4101239C46E04443469B0705D16421404601F0F0FB002908D1C8214900404601F0E9FB002903D1012302E0012300E00023002B01D08F4B00E08C4B1E0042
:400B80000027AF42DCD1A342DAD941460120FFF7A5FF8A4B58430137C146B8460AE0A41BBD4101239C46E04449464046FFF796FF824B584306000027AF42F0D1A042EED988
:400BC0004746C8467D4A00232000290001F0BAFB7A4941430A000023AB4203D1A14201D900220023A41A9D41431C9946E122120100232000290001F0A5FB0090E1210901C1
:400C000041430E9B002B14D0002D03D10AD16C4B9C4207D9009B0C2B0ED90C38009001239B460EE0009B002B09D19B460C33009307E000239B4604E001239B4601E000237C
:400C40009B460A000023AB4203D1A14201D900220023A41A9D413C2200232000290001F071FB06000101891B8A000023AB4203D1A24201D900220023A41A9D4102940395F9
:400C80000A21380001F0D2FA05070A21380001F053FB0C0625430A21484601F0C7FA04052C430A21484601F047FB0D042C43FA218900404601F0BAFA05032543FA218900BA
:400CC000404601F039FB0C006421200001F0AEFA000205436421200001F02EFB0C000A21200001F0A3FA000105430A21200001F023FB0D4353465D600E9BDB055A46950505
:400D00002B431C000A21009801F090FA050525430A21009801F010FB0C0425430A21300001F084FA04032C430A21300001F004FB09020C430A21029D039E280001F076FA69
:400D4000000104430A21280001F0F6FA0C4353461C60022F04D80C3701235B429C46E04401371A2078430A2101F060FA4844404443469C0804196421404601F057FA4300EF
:400D8000181840002418C8214900404601F04EFA2018072101F0D0FA002900D107315346996005B03CBC90469946A246AB46F0BD8033E101B20700000085E2018051010047
:400DC000C1A8000010B582B0074B1A685B68074CE068002112184B41054C00912000FFF7A1FE206802B010BDF0020020C0010020D402002010B582B0074B1A685B68074C22
:400E0000E068002112184B41054C00912000FFF789FE606802B010BDF0020020C0010020D4020020F0B5474680B486B016000023009302000B0002A8FFF774FEF30701D48E
:400E4000012300E00023002B23D002990B09072213409A00D3185A000F270F40BF183A2F02D87B1C984601E0002398467F2399430D000A21404601F0D9F904012C430A218F
:400E8000404601F059FA0C430294474503D9012302E0012300E00023002B28D0B20726D4029C230B072213409A00D3185A00230A0F271F40D7193A2F02D87B1C984601E0A6
:400EC00000239846914B1C4025000A21404601F0ADF904032C430A21404601F02DFA09020C430294B84501D2012300E00023002B25D0720723D4029D2B0D032213409A00AD
:400F0000D3185A002B0C0F241C401419162C01D8671C00E000277E4B1D400A21380001F085F901050D430A21380001F005FA090429430291A74201D2012300E00023002B19
:400F400075D0F20673D4039C230D032213409A00D3185A00230C0F251D405519330723D5230F012213409A00D3185A00200E0F2318401018220B03211140FA22920051431C
:400F8000220A1A4064277A43891822091A409700BA185700C9192340C918FFF79FFDEF1DB84230D23F1A2EE0230B03221A40FA239B0053431900220A0F20024064273B00DF
:400FC0005343CA18230903409900CB1859005218010021405118230F012213409A00D3185A00230E18401018F743FFF777FD3B0704D5EF1DB84206D23F1A04E0854201D254
:401000006F1C00E0012742490C400A21380001F00DF901050C430A21380001F08DF9090421430391AF4201D2012300E00023002B25D0B20623D4039D2B0F012213409A0014
:40104000D3185A002B0E0F241C4014190B2C01D8671C00E001272F4B1D400A21380001F0E5F801070D430A21380001F065F9090629430391A74201D2012300E00023002B6C
:401080003CD073063AD40398030B03241C40FA26B60021007143040A0F231C40642254430C1902091A4091008A18510064180340E4180134800B85033100200001F0B6F80C
:4010C000000305433100200001F036F90C006421200001F0ABF8000205436421200001F02BF90C000A21200001F0A0F8000105430A21200001F020F90D430395029903984F
:40110000FFF7FEFB06B004BC9046F0BDFF80FFFFFFFFC0FFFFFFFFE070B51C4A136911688C4663441361526893422ED3184E346875680120002100196941306071609B1AB9
:40114000124C2361E06800213268736812184B41E569A469A24218D1AB4216D10D4A0423D4682343D3600C4B1A680C4B1A6034687568D2B200196941FFF754FE034B9861B1
:40118000D9619B68002B00D0984770BDC0010020F0020020D4020020C8000020E4020020F0B55F4656464D464446F0B487B080460D00CE4B1A685B680021009102A8FFF7B3
:4011C000B1FC029C22090720024093009A1853000F210A002240D21843461E68330903409800C31858000B0033401F18BA4202D90123994601E000239946EB0701D401233C
:4012000000E00023002B05D04B46002B01D0002700E017000A21380001F008F803019A460A21380001F088F853461943230B072213409A00D3185800220A0F231340181897
:40124000AB0708D44B46002B10D03A2801D8471C0DE000270BE0330B072213409A00D3185A00330A0F271F40BF1800E00700874202D20123994601E0002399469C4B1940BB
:401280008A460A21380000F0D1FF010353460B439A460A21380001F04FF8090253461943230D03221A4093009A185000240C0F231C4003196A0708D44A46002A22D0162B7D
:4012C00001D85C1C1FE000241DE0320D03200240900082185000320C0F241440041980221204324000D00122002A0CD08022D2031640964201D1012200E00022002A02D0C2
:401300000C3400E01C009C4202D201239B4601E000239B46774E0E400A21200000F086FF000506430A21200001F006F809040E43B146039C220D03210A4093009A18500054
:40134000230C0F26334082469A4443465F683B0D0B409A00D3185A003B0C1E409619EB065AD42B072BD5230F012213409A00D3185A00200E0F2318401018220B1140FA2288
:4013800092005143220A1A4064267243891822091A409600B218560089192340C918FFF79DFB049E43469B689E4201D89E1B01E09E1B07365644B0422ED2361A2CE05B46F2
:4013C000002B28D0230B03221A40FA239B0053431900220A0F200240642633005343CA18230903409900CB1859005218010021405118230F012213409A00D3185A00230EB3
:4014000018401018FFF76AFB824502D253465E1C02E0012600E05646564502D20123984601E0002398460A21300000F0FFFE03059A460A21300000F07FFF09045346194350
:40144000230F012213409A00D3185800220E0F231340C3182022154008D14246002A10D00B2B01D85E1C0DE001260BE03A0F012002409000821850003A0E0F261640861935
:4014800000E01E009E4202D20123984601E000239846194B19408A460A21300000F0C6FE010753460B439A460A21300000F044FF090653461943230B03221A40FA239B0034
:4014C0005A43230A0F26334064204343D218230933409800C3185800121834401419002D0CD14346002B1FD001341DE0F0020020FF80FFFFFFFFC0FFFFFFFFE03B0B0322DE
:401500001A40FA239B0053431D003A0A0F242240642003005343EA183B0923409800C318580012182740D4190E00FA218900200000F07CFE00030643FA218900200000F0C2
:40154000FBFE0D006421280000F070FE0002340004436421280000F0EFFE0D000A21280000F064FE000104430A21280000F0E4FE200008434946FFF7C3F907B03CBC904603
:401580009946A246AB46F0BDF0B583B001900E000B0D032423409A00D31858000F0C0F231F40C7190A0F01210A4091008A185100300E18400D18320B1440FA22920062439C
:4015C0001000340A1C4064210A006243841832091A4091008A18510064183340E41801993000FFF78DF91A4B18605960194B5E60019A1A60022D01D80C35013C681C1A2313
:4016000058430A2100F012FEC7193F19A308FF186421200000F00AFE430018184300FF18C8214900200000F001FE3818072100F083FE002900D10731064B9960064B1978F8
:401640000648FFF7ADFD064B9861D96103B0F0BDF0020020D4020020C8000020C4020020C001002010B50122074B1A7000230749CB600749CB6007490B70074B1A6007491D
:401680000748FFF781FF10BDC0020020C0010020D4020020E8020020E4020020202027104118050010B5034B1B78002B01D1FFF7D9FF10BDC002002070B505000078012413
:4016C00004E000F00DFD285D0134E4B20028F8D170BDC04600230AE00D4A12683F210A400C49C95C8A4201D1033303E001332D2BF2D9032308490868084A02400A60084A51
:40170000944663441B78DBB2064A13607047C0462CFF0B40D032000000002240FFFFFFBFCDF1FF0F28FF0B40034B18688023DB05184000D0012070470000224010B5040038
:4017400000F043FDE304E022920313401900054C2368054A1A400B001343236000F039FD10BDC04600010B40FFFFC7FF02001920024002490B6818400A60704700030B40DB
:4017800001BE704710B5040006E0084B586800F013FD074B9C46644480231B029C42F4D8024B9868604300F007FD10BDD80000200080FFFF70B582B000F07EF900285DD071
:4017C00000F003FD050000230AE02D4A12683F210A402C49C95C8A4201D1033303E001332D2BF2D903230021274A1160274A1268D20606D1254802681F318A4313390A4354
:401800000260234C2168234A1140234A5A438023DB019C466244D20B013A5205520D0B001343A0225203134323601C4B1B680193302000F0D1FC1A4A13688021C9050B4339
:4018400013602668174B1E40002407E00120FFF799FF1034A30533430D4A1360EE2CF5D90120FFF78FFFFF239B051E43084B1E60019A0A4B1A60280000F0ABFC02B070BD38
:401880002CFF0B40D032000028FF0B4034FF0B400800224000F800C040420F003000104000002240FFFF3FC030B587B0040000F08CFC0500FFF738FF002803D0FFF70AFF6A
:4018C000012100E00021104B1B6800930F4B1B680193033C0E4B1B5D02930E4B1B68039304AA0D4B04936B4605930C4B1A600C480C4A10601B68012901D1FFF75BFF280004
:4019000000F067FC07B030BD08010B4000010B40D032000030001040B6EA000008001040170000800400104010B5034B1B7B584300F042FC10BDC046D8000020134B1B787D
:40194000DAB20260124B1B781B0213430360114A12781204134303600F4A12781206134303600E4B1B78DAB242600D4B1B781B02134343600B4A12781204134343600A4AEE
:4019800012781206134343607047C04678F1FF0F79F1FF0F7AF1FF0F7BF1FF0F7CF1FF0F7DF1FF0F7EF1FF0F7FF1FF0F30B583B000F00BFC04001E4A13685B005B081360D4
:4019C0001C4B1B685B000CD51B4801681B4B19401B4B1A68131D9B05FF22920513400B430360184B1B889BB2174A1360174A116804230B431360164D2B6801930220FFF737
:401A00009DFE30BF019B2B600A4B1B685B000AD52320FFF789FF084A1168084B0B40FF2189050B431360200000F0D3FB03B030BD00000B400000224008002240FFFF3FC0B8
:401A400028FF0B4052F1FF0F0C000B4010ED00E000010B40024B1868800F80077047C0460C020B40034B1868C0231B02184000D00120704700010B4010B50D4B1A6801214F
:401A80008A431A601A68022082431A60094A10683024A043203C204310601068093CA043014311601A68802109060A431A6010BD00002240000F2240034B1B68002B01DA06
:401AC000012000E0002070470000224010B500F07CFB044A1368C02109020B43136000F078FB10BD00010B4010B500F06EFB08490A68084B1A408024E40122430A600A6836
:401B000013408022120213430B6000F062FB10BD00010B40FF3FFFFF10B50400022802D90020FFF72DFE044B1868E4000134E0400123184010BDC04610020B4070B504004D
:401B40000D00022802D90020FFF71AFE2000FFF7E3FF00280AD1064A1368E40003210800A04083430D40A5401D43156070BDC0460C020B4010B5084BDB68002B0BD0074A64
:401B8000136801218B431360034C21690020FFF7D5FF0023E36010BDE001002010020B400300034A1068DB00D8400323184070470C020B4070B504000D00012802D9002050
:401BC000FFF7DEFD2000FFF7A7FF002809D105490B68E40002340122A2409343A5401D430D6070BD0C020B4010B50400012802D90020FFF7C5FD044B1868E4000234E040BA
:401C00000123184010BDC0460C020B4010B504000C4A136803431360C30704D50020FFF77BFF0028FAD0E30504D50120FFF774FF0028FAD0E30304D50220FFF76DFF0028DC
:401C4000FAD010BD10020B4010B50400FFF70AFF002818D10C4A1368A3431360E30704D50020FFF759FF0028FAD1E30504D50120FFF752FF0028FAD1E30304D50220FFF756
:401C80004BFF0028FAD110BD10020B40024B1868024B18407047C0460C020B400808000070B505000C00012802D90020FFF768FD0D4B1B689B0F01D1C92000E05D20FFF7DD
:401CC00033FE0A490B682D01094AAA409343AC401C430C60044B1B689B0F01D1432000E01F20FFF721FE70BD0C020B4008020B40FFFF0000024B1868000E1F23184070470B
:401D00000C020B4010B50400012802D90020FFF737FD034B18682401E0400004000C10BD08020B4010B5012809D0002802D0022809D00BE0084B18680004000C0AE0064B21
:401D40001868000C06E0054B186803E00020FFF717FD002010BDC04600020B4004020B4010B50020FFF7D8FE002803D00022184B5A6121E00120FFF7CFFE002803D0012294
:401D8000134B5A6118E00220FFF7C6FE002803D002220F4B5A610FE00D4C0123E360002363610020FFF7FCFE206100210020FFF7C5FE0120FFF72AFF054B5869FFF7B2FFE9
:401DC0000400034B5869FFF7ADFF8442F9D010BDE001002070B50400FFF73CFEA04211D000F0F3F90500FFF7BBFF074A13689B009B08A40FA4071C431460FFF7BBFE280012
:401E000000F0E7F970BDC0460C020B40024B1868024B18407047C04610020B400404040070B5050000F0D1F90400FFF71BFE002803D0FFF759FE012100E000210848284094
:401E4000084A1568084B2B40184310601368012901D1FFF73BFE200000F0BBF970BDC0460404040010020B40FBFBFBFF054A1168054B184008431060024B1A68024B1A4271
:401E8000FAD1704710020B400808080010B5022805D88000044B1B189869996103E00020FFF76EFC002010BDE001002010B5022804D88000044B1818806903E00020FFF765
:401EC0005FFC002010BDC046E001002010B502280BD88000074BC158074B5A6A8A435A62064A53680B43536002E00020FFF748FC10BDC04600330000E0010020EC000020DC
:401F000010B5022807D88000054BC158054A53688B43536002E00020FFF732FC10BDC04600330000EC00002010B5041E13D1FFF737FE032803D10130FFF772FF23E0200077
:401F4000FFF72EFE02281ED10630FFF78FFF0420FFF766FF17E0012815D1FFF721FE032804D18020C000FFF75BFF0CE02000FFF717FE022807D180200001FFF777FF80205C
:401F8000C000FFF74DFF10BD70B504000E001500012823D8FFF728FE00281FD1114B9D421CD8002E0AD12000FFF7BCFE8542FAD32000FFF7B7FE8542FAD812E0A2000A4BC5
:401FC000D65829002000FFF76BFE084A536A33435362074A53683343536002E00020FFF7CFFB70BDFFFF000000330000E0010020EC00002070B504000E001500012811D811
:40200000FFF7F2FD00280DD1084B9D420AD82000FFF788FE2A181204120C31002000FFF7B3FF02E00020FFF7ABFB70BDFFFF0000044A1368DBB201218B4308401843106074
:402040007047C04600000440024B1B68012018407047C0460400044004490A68D2B208239A43C000184010430860704700000440024B1868C00801231840704704000440E8
:40208000014BD8657047C0460000002010B5040000F09BF8044A13689B009B08A4071C43146000F096F810BD04E400E08022014B1A60704700E100E08022014B1A607047D7
:4020C00080E100E010B50400FFF7F6FF2000FFF7D7FF0320FFF7DAFFFFF7E8FF10BDC046FEB5494652465B460EB407462E4909688A462E4A12682E48022100F097F803000E
:402100002A480068C0182A4900F090F806001F3EB346234A126801219140C9430C000125002600F052F8814651460B6823400B605846043000F040F83800F04028409040F5
:402140000B68234003430B60584600F035F80136072EF1D900200130012090400B68234003430B605846063000F026F8484600F030F8C046C046C0460EBC894692469B4632
:40218000FEBDC046C046C046C046C046C046C046C046C046C046C046C046C046C046C046D4000020D0000020CC000020E800002000C20100000000000230800803D00138A9
:4021C000FDD1C046C046C0467047EFF3108072B6704780F31088704770B50400FFF7F5FF0500102C05D8104A136803218B43136016E0202C07D80C490B6803229343023AAA
:4022000013430B600CE0302C07D807490B6803229343013A13430B6002E00020FFF7B0FA2800FFF7D6FF70BD30001040002243088B4274D303098B425FD3030A8B4244D33D
:40224000030B8B4228D3030C8B420DD3FF22090212BA030C8B4202D31212090265D0030B8B4219D300E0090AC30B8B4201D3CB03C01A5241830B8B4201D38B03C01A524131
:40228000430B8B4201D34B03C01A5241030B8B4201D30B03C01A5241C30A8B4201D3CB02C01A5241830A8B4201D38B02C01A5241430A8B4201D34B02C01A5241030A8B42F8
:4022C00001D30B02C01A5241CDD2C3098B4201D3CB01C01A524183098B4201D38B01C01A524143098B4201D34B01C01A524103098B4201D30B01C01A5241C3088B4201D3ED
:40230000CB00C01A524183088B4201D38B00C01A524143088B4201D34B00C01A5241411A00D20146524110467047FFE701B5002000F006F802BDC0460029F7D076E7704716
:402340007047C046002B11D1002A0FD1002900D1002802D00021C943081C07B4024802A14018029003BDC046D9FFFFFF03B4684601B5029800F032F8019B9E4602B00CBC4D
:402380007047C046F0B54F464646C0B41604360C9946330005042C0C070C150C63437E436F4365431C0CAD1964199C46A64203D980235B02984647446346250CEF191D0405
:4023C0004B464A4343432D0C240464199918C91920000CBC90469946F0BDC046F0B54D46564644465F46F0B4924683B004000D0099468B422FD82CD04946504600F0AEF84B
:4024000029000600200000F0A9F8331A9846203B9B4600D574E053465A4693401F005346424693401E00AF4229D826D05B46A41BBD41002B00DA79E00022002300920193E0
:4024400001235A4693400193012342469340009319E08242D0D900220023009201930C9B002B01D01C605D600098019903B03CBC90469946A246AB46F0BDA342D6D90022A4
:402480000023009201934346002BE8D0FB0772081A4346467B080EE0AB4201D1A2420CD8A41A9D41012024196D410021013E24184D41002E06D0AB42EED9013E24196D4156
:4024C000002EF8D15B460098019900196941002B22DB2B005A46D3402A004446E2401C005B461500002B2CDB26009E40330026004746BE403200801A994100900191AEE72A
:40250000424620239B1A5246DA40414613004A468A4017001F4382E7424620239B1A2A0046469A402300F3401343D5E74246202300219B1A0022009101920122DA40019264
:4025400082E74246202326009B1ADE402F00B446974066463B003343C9E7C04610B5002903D100F007F8203002E0081C00F002F810BDC0461C2101231B04984201D3000C1D
:4025800010391B0A984201D3000A08391B09984201D30009043902A2105C40187047C04604030202010101010000000000000000014B18687047C046540100200E4B70B5EC
:4025C00000251E000D4CE41AA410A54204D0AB00F35898470135F8E700F0B4FE084B00251E00084CE41AA410A54204D0AB00F35898470135F8E770BD5033000050330000D2
:402600005033000058330000002310B59A4203D0CC5CC4540133F9E710BD03008218934202D019700133FAE7704700000EB410B59DB002A9029008610B4882248860486137
:40264000012040421FABC881084804CBA400006801938C8100F076F80023029A13701DB010BC08BC03B01847FFFFFF7F54010020031C0A7801311A700133002AF9D170479C
:40268000F0B58E6885B007000C00039201939E4243D890238A89DB001A423ED003250969236801985B1A029363695D43EB0F5D19029B6D1001331B18AB4200D91D005305A8
:4026C00010D52900380000F037FB061E14D0029A2169FFF799FFA289194B134080221343A38112E02A00380000F086FB061E0CD12169380000F0D4FA0C23402201203B6025
:40270000A38940421343A38117E0029B2661F61826606561019EED1AA560019BB34200D21E0032000399206800F0A5FA0020A3689B1BA36023689E19266005B0F0BDC046D7
:402740007FFBFFFFF0B59FB0029005938B890F0016001B0610D50B69002B0DD1402100F0EBFA38603861002804D10C23029A01381360D8E040237B61002306AD6B61203340
:402780006B761033AB7634002378002B03D1A31B049312D003E0252BF9D00134F4E7A31B320039000298FFF76BFF431C00D1B4E06A69049B944663446B612378002B00D186
:4027C000ABE00122002352426A6002A95432521801342B60EB60AB601370AB65534E21780522300000F03CFA002807D00123801B83402A68013413432B60EFE72B68DA063D
:4028000004D55322202102A8121811701A0704D553222B2102A81218117022782A2A03D0099B00200A210EE0059A111D12680591002A01DB099204E05242EA60022213434C
:402840002B6001340BE02278303A092A04D84B4301349B180120F6E7002800D0099323782E2B1ED163782A2B0AD1059B02341A1D1B680592002B01DA01235B42079310E02C
:4028800000230A201A0001346B6021783039092904D84243013452180123F6E7002B00D00792234E21780322300000F0D9F9002806D04023801B83402A68013413432B6060
:4028C000217806221B48661C297600F0C9F9002812D0194B002B06D10722059B073393430833059314E005AB00933A00134B2900029800E000BF07E005AB00933A000F4BD6
:402900002900029800F08AF80390039B013304D06B69039A9B186B6135E7BB890B985B0601D5012040421FB0F0BDC0460E3300001433000018330000000000008126000060
:40294000F7B5170001938A680B6900900C00934200DA130022003B6043321278002A01D001333B6023689B0602D53B6802333B60062523681D401ED0230043331B785A1E9B
:402980009341226892061CD53020E1184331087021005A1C45310978A2184332023311700FE022000123193201990098089EB047431C0ED00135E3683A689B1A9D42F0DB7A
:4029C000DAE72200019943320098089DA847431C02D10120404220E006232068E1683A6803400025042B03D18D1AEB43DB171D40A3682269934201DD9B1AED180027BD4290
:402A00000AD0220001231A3201990098089EB047431CDED00137F2E70020FEBDF0B58BB006920A0043320793059004920A7E0C00109B6E2A00D1ABE011D8632A22D009D82A
:402A4000002A00D1B5E0582A00D0C5E045310A70814A4FE0642A1DD0692A1BD0BCE0732A00D1AAE009D86F2A29D0702A00D0B3E0202209680A43226037E0752A1FD0782A1F
:402A800033D0A9E00E001A684236111D196013683370A4E021681A68080606D4490604D5111D19600023D55E02E0111D19601568002D3BDA2D23049A6D42137036E021681A
:402AC0001A68080606D4490604D51568111D1960ADB202E0111D196015685F4B227E039308276F2A1DD00A271BE022007821453211705A4A19680392081D226818600D68F1
:402B0000100602D4500600D5ADB2D30702D520231A4322601027002D03D1202322689A4322602300002243331A7002E00A274A4B03936368A360002B09DB04222168914305
:402B40002160002D05D1049E002B11D07BE0002D79D0049E28003900FFF7EEFB039B013E5B5C280033703900FFF760FB051EF1D1082F09D12368DB0706D56368226993421E
:402B800002DC3023013E3370049B9B1B23612BE009681A68080607D4490605D5111D19601368A28A1A8004E0111D1960136862691A600023049E236116E01A68111D19607E
:402BC000166800216268300000F04AF8002801D0801B6060636803E0260042363270012323610023049A1370079B09AA00932100069B0598FFF7A4FE431C02D10120404228
:402C000027E02369320006990598079DA847431CF4D0236800259B070FD4099BE068984217DA180015E022000123193206990598079EB047431CE1D00135E368099A9B1A92
:402C40009D42F0DBE9E72600039B42361B7833708EE70BB0F0BDC0461F33000030330000C9B28218904204D003788B4202D00130F8E70020704710B5884202D98B1898422D
:402C800001D3002305E09B1A013A08D3995C8154FAE7934203D0CC5CC4540133F9E710BD70B50500002944D00C1F2368002B00DAE418280000F0D8F81E4A13681100002BD4
:402CC00002D16360146031E0A3420DD92268A018834203D118685B688218226063600C6024E0A24203D813005A68002AF9D11E689819A0420BD12168711858181960824245
:402D000014D110685268411819605A600EE0A04202D90C232B6009E021686018824203D1106852684118216062605C60280000F09CF870BD0C020020032370B5CD1C9D4364
:402D4000083506000C2D01D20C2501E0002D01DBA94202D90C23336048E0300000F084F8234B1C681A002100002913D00B685B1B0DD40B2B02D90B60CC181EE08C4202D19B
:402D8000636813601AE04B6863600C0016E00C004968E9E7174C2368002B03D1300000F051F820602900300000F04CF8431C18D00323C41C9C43A0420DD12560300000F0E2
:402DC00054F8200007220B30231D9043C31A0ED05A42E2500BE0211A300000F033F8431CEBD10C233000336000F03FF8002070BD0C02002008020020F8B506000C00150049
:402E0000002904D11100FFF797FF040018E0002A03D1FFF745FF2C0012E000F027F885420ED929003000FFF787FF071E07D021002A00FFF7E9FB21003000FFF731FF3C003F
:402E40002000F8BD002370B5064C050008002360FDF7EEFC431C03D12368002B00D02B6070BDC046F8020020704770470B1F1A68101F002A04DA891804390B68D01804381E
:402E8000704700000000000054F5FF7F010000000D0A20446576696365207265737461727465642062792043595F5359535F52455345545F574454200D0A53746F70656433
:402EC00020666F7220666F7265766572000000001B5B324A1B5B3B48000000000D0A0D0A0D0A5254435F50345F5744545F4578616D706C655F56312E30302E30342D466FF5
:402F0000726B31200D0A436F6D70696C652054696D653A20000000000D0A496E697469616C697A6174696F6E0D0A0D0A000000000D0A456E746572696E67204D61696E2055
:402F40004C6F6F700D0A0D0A0D0A00000D0000000D0A0D0A0D0A50726F6772616D2066696E69736865642072756E6E696E673A2020256C75202E0D0A000000005F00000079
:402F80005F436F6E736F6C2D4C4F470D0A0D0A0D0A0000002530326C752D2530326C752D2530326C750000002532735F253273000D0A776474496E7465727275707448618F
:402FC0006E646C65720D0A000D0A0D0A57636F456E61626C656456616C75653A2020256C75202E000D0A5764744765744361736361646556616C75653A2020256C75202E03
:40300000000000000D0A576474476574546F67676C6542697456616C75653A2020256C75202E0D0A000000000D0A5764744765744D6F646556616C7565303A2020256C752F
:40304000202E00000D0A576474476574456E61626C656453746174757356616C7565303A2020256C75202E000D0A576474476574436C6561724F6E4D6174636856616C75E3
:4030800065303A2020256C75202E00000D0A5764744765744D6174636856616C7565303A2020256C75202E000D0A576474476574436F756E7456616C7565303A2020256CB8
:4030C00075202E000D0A576474476574496E7465727275707443616C6C6261636B56616C7565303A2020256C75202E0D0A0000000D0A5764744765744D6F646556616C7538
:4031000065313A2020256C75202E00000D0A576474476574456E61626C656453746174757356616C7565313A2020256C75202E000D0A576474476574436C6561724F6E4D43
:403140006174636856616C7565313A2020256C75202E00000D0A5764744765744D6174636856616C7565313A2020256C75202E000D0A576474476574436F756E7456616CD2
:403180007565313A2020256C75202E000D0A576474476574496E7465727275707443616C6C6261636B56616C7565313A2020256C75202E0D0A0000000D0A5764744765747D
:4031C0004D6F646556616C7565323A2020256C75202E00000D0A576474476574456E61626C656453746174757356616C7565323A2020256C75202E000D0A57647447657455
:40320000436F756E7456616C7565323A2020256C75202E000D0A576474476574496E7465727275707443616C6C6261636B56616C7565323A2020256C75202E0D0A00000034
:403240000D57616665723D2530336C752058506F733D2530336C752059506F733D2530336C7500000A0D52657649443D2530336C75204C6F74303D2530336C75204C6F741A
:40328000313D2530336C75204C6F74323D2530336C7520536F72743D2530336C7500000000300F40000400400F40000400001F003B005A0078009700B500D400F30011013B
:4032C00030014E011F1C1F1E1F1E1F1F1E1F1E1F030405060708090A0B0C0E0F101112131415161718191B1C1D1E1F2021222325262728292A2B2E2F3031323334350000F1
:403300000400000000040000000004004300232D302B2000686C4C00656667454647003031323334353637383941424344454600303132333435363738396162636465664B
:4033400000000000F8B5C046F8BC08BC9E46704745010000A9080000F8B5C046F8BC08BC9E4670471D01000078330000C000002098000000A80100000000000000030020BD
:40338000FF000000000704400700000001000000010000000000E02EC05D00001800000000366E01F0000000040404000000000000000000000000000000000000000000D6
:4033C0000000000000000000000000000C3300000000000000000000000000000000000000000000000000000000000000000000000000000000000000000000000000008E
:40340000000000000000000000000000F400002000000000000000000000000000000000000000000000000000000000000000000000000000000000000000000000000078
:40344000000000000000000000000000000000000000000000000000000000000000000000000000000000000000000000000000000000000000000000000000000000004C
:40348000000000000000000000000000000000000000000000000000000000000000000000000000000000000000000000000000000000000000000000000000000000000C
:4034C00000000000000000000000000000000000000000000000000000000000000000000000000000000000000000000000000000000000000000000000000000000000CC
:40350000000000000000000000000000000000000000000000000000000000000000000000000000000000000000000000000000000000000000000000000000000000008B
:020000040001F9
:0200000490303A
:02000000673760
:0200000490402A
:4000000000000000000000000000000000000000000000000000000000000000000000000000000000000000000000000000000000000000000000000000000000000000C0
:400040000000000000000000000000000000000000000000000000000000000000000000000000000000000000000000000000000000000000000000000000000000000080
:0200000490501A
:0C0000000002112D11A10001113D78D863
:0200000490600A
:0100000001FE
:00000001FF